{
  "_format": "hh-sol-artifact-1",
  "contractName": "StakingContract",
  "sourceName": "contracts/StakingContract.sol",
  "abi": [
    {
      "inputs": [
        {
          "internalType": "address",
          "name": "_tokenAddress",
          "type": "address"
        }
      ],
      "stateMutability": "nonpayable",
      "type": "constructor"
    },
    {
      "inputs": [],
      "name": "annualInterestRate",
      "outputs": [
        {
          "internalType": "uint256",
          "name": "",
          "type": "uint256"
        }
      ],
      "stateMutability": "view",
      "type": "function"
    },
    {
      "inputs": [],
      "name": "getRewards",
      "outputs": [
        {
          "internalType": "uint256",
          "name": "",
          "type": "uint256"
        }
      ],
      "stateMutability": "view",
      "type": "function"
    },
    {
      "inputs": [],
      "name": "getStakeInfo",
      "outputs": [
        {
          "components": [
            {
              "internalType": "uint256",
              "name": "stake",
              "type": "uint256"
            },
            {
              "internalType": "uint256",
              "name": "stakeTime",
              "type": "uint256"
            },
            {
              "internalType": "uint256",
              "name": "lastWithdrawTime",
              "type": "uint256"
            }
          ],
          "internalType": "struct StakingContract.StakeInfo[]",
          "name": "",
          "type": "tuple[]"
        }
      ],
      "stateMutability": "view",
      "type": "function"
    },
    {
      "inputs": [
        {
          "internalType": "uint256",
          "name": "_amount",
          "type": "uint256"
        }
      ],
      "name": "stake",
      "outputs": [],
      "stateMutability": "nonpayable",
      "type": "function"
    },
    {
      "inputs": [],
      "name": "token",
      "outputs": [
        {
          "internalType": "contract IERC20",
          "name": "",
          "type": "address"
        }
      ],
      "stateMutability": "view",
      "type": "function"
    },
    {
      "inputs": [
        {
          "internalType": "uint256",
          "name": "_stakingIndex",
          "type": "uint256"
        }
      ],
      "name": "unstake",
      "outputs": [],
      "stateMutability": "nonpayable",
      "type": "function"
    },
    {
      "inputs": [],
      "name": "withdrawAll",
      "outputs": [],
      "stateMutability": "nonpayable",
      "type": "function"
    }
  ],
  "bytecode": "0x608060405260146002553480156200001657600080fd5b50604051620017003803806200170083398181016040528101906200003c9190620000ed565b806000806101000a81548173ffffffffffffffffffffffffffffffffffffffff021916908373ffffffffffffffffffffffffffffffffffffffff160217905550506200011f565b600080fd5b600073ffffffffffffffffffffffffffffffffffffffff82169050919050565b6000620000b58262000088565b9050919050565b620000c781620000a8565b8114620000d357600080fd5b50565b600081519050620000e781620000bc565b92915050565b60006020828403121562000106576200010562000083565b5b60006200011684828501620000d6565b91505092915050565b6115d1806200012f6000396000f3fe608060405234801561001057600080fd5b506004361061007d5760003560e01c806374a4030f1161005b57806374a4030f146100da578063853828b6146100f8578063a694fc3a14610102578063fc0c546a1461011e5761007d565b80630572b0cc146100825780631a9703da146100a05780632e17de78146100be575b600080fd5b61008a61013c565b6040516100979190610e14565b60405180910390f35b6100a861023c565b6040516100b59190610e14565b60405180910390f35b6100d860048036038101906100d39190610e60565b610242565b005b6100e26105d1565b6040516100ef9190610f8d565b60405180910390f35b61010061068b565b005b61011c60048036038101906101179190610e60565b610776565b005b6101266109e4565b604051610133919061102e565b60405180910390f35b600080600160003373ffffffffffffffffffffffffffffffffffffffff1673ffffffffffffffffffffffffffffffffffffffff16815260200190815260200160002080549050116101c2576040517f08c379a00000000000000000000000000000000000000000000000000000000081526004016101b9906110a6565b60405180910390fd5b6000805b600160003373ffffffffffffffffffffffffffffffffffffffff1673ffffffffffffffffffffffffffffffffffffffff168152602001908152602001600020805490508110156102345761021a3382610a08565b8261022591906110f5565b915080806001019150506101c6565b508091505090565b60025481565b600160003373ffffffffffffffffffffffffffffffffffffffff1673ffffffffffffffffffffffffffffffffffffffff1681526020019081526020016000208054905081108015610294575060008110155b6102d3576040517f08c379a00000000000000000000000000000000000000000000000000000000081526004016102ca90611175565b60405180910390fd5b6000600160003373ffffffffffffffffffffffffffffffffffffffff1673ffffffffffffffffffffffffffffffffffffffff168152602001908152602001600020828154811061032657610325611195565b5b90600052602060002090600302016000015411610378576040517f08c379a000000000000000000000000000000000000000000000000000000000815260040161036f90611210565b60405180910390fd5b6103f062278d00600160003373ffffffffffffffffffffffffffffffffffffffff1673ffffffffffffffffffffffffffffffffffffffff16815260200190815260200160002083815481106103d0576103cf611195565b5b906000526020600020906003020160010154610b5590919063ffffffff16565b421015610432576040517f08c379a00000000000000000000000000000000000000000000000000000000081526004016104299061127c565b60405180910390fd5b600061043e3383610a08565b905060008054906101000a900473ffffffffffffffffffffffffffffffffffffffff1673ffffffffffffffffffffffffffffffffffffffff1663a9059cbb336104f284600160003373ffffffffffffffffffffffffffffffffffffffff1673ffffffffffffffffffffffffffffffffffffffff16815260200190815260200160002087815481106104d2576104d1611195565b5b906000526020600020906003020160000154610b5590919063ffffffff16565b6040518363ffffffff1660e01b815260040161050f9291906112bd565b6020604051808303816000875af115801561052e573d6000803e3d6000fd5b505050506040513d601f19601f82011682018060405250810190610552919061131e565b50600160003373ffffffffffffffffffffffffffffffffffffffff1673ffffffffffffffffffffffffffffffffffffffff16815260200190815260200160002082815481106105a4576105a3611195565b5b90600052602060002090600302016000808201600090556001820160009055600282016000905550505050565b6060600160003373ffffffffffffffffffffffffffffffffffffffff1673ffffffffffffffffffffffffffffffffffffffff168152602001908152602001600020805480602002602001604051908101604052809291908181526020016000905b828210156106825783829060005260206000209060030201604051806060016040529081600082015481526020016001820154815260200160028201548152505081526020019060010190610632565b50505050905090565b6000600160003373ffffffffffffffffffffffffffffffffffffffff1673ffffffffffffffffffffffffffffffffffffffff1681526020019081526020016000208054905011610710576040517f08c379a0000000000000000000000000000000000000000000000000000000008152600401610707906110a6565b60405180910390fd5b60005b600160003373ffffffffffffffffffffffffffffffffffffffff1673ffffffffffffffffffffffffffffffffffffffff168152602001908152602001600020805490508110156107735761076681610b6b565b8080600101915050610713565b50565b600081116107b9576040517f08c379a00000000000000000000000000000000000000000000000000000000081526004016107b090611397565b60405180910390fd5b8060008054906101000a900473ffffffffffffffffffffffffffffffffffffffff1673ffffffffffffffffffffffffffffffffffffffff1663dd62ed3e33306040518363ffffffff1660e01b81526004016108159291906113b7565b602060405180830381865afa158015610832573d6000803e3d6000fd5b505050506040513d601f19601f8201168201806040525081019061085691906113f5565b1015610897576040517f08c379a000000000000000000000000000000000000000000000000000000000815260040161088e9061146e565b60405180910390fd5b60008054906101000a900473ffffffffffffffffffffffffffffffffffffffff1673ffffffffffffffffffffffffffffffffffffffff166323b872dd3330846040518463ffffffff1660e01b81526004016108f49392919061148e565b6020604051808303816000875af1158015610913573d6000803e3d6000fd5b505050506040513d601f19601f82011682018060405250810190610937919061131e565b5060006040518060600160405280838152602001428152602001428152509050600160003373ffffffffffffffffffffffffffffffffffffffff1673ffffffffffffffffffffffffffffffffffffffff16815260200190815260200160002081908060018154018082558091505060019003906000526020600020906003020160009091909190915060008201518160000155602082015181600101556040820151816002015550505050565b60008054906101000a900473ffffffffffffffffffffffffffffffffffffffff1681565b600080600160008573ffffffffffffffffffffffffffffffffffffffff1673ffffffffffffffffffffffffffffffffffffffff1681526020019081526020016000208381548110610a5c57610a5b611195565b5b90600052602060002090600302016002015490506000610a858242610db990919063ffffffff16565b90506000600160008773ffffffffffffffffffffffffffffffffffffffff1673ffffffffffffffffffffffffffffffffffffffff1681526020019081526020016000208581548110610ada57610ad9611195565b5b906000526020600020906003020160000154905060006301e1338090506000610b4582610b376064610b2988610b1b89600254610dcf90919063ffffffff16565b610dcf90919063ffffffff16565b610de590919063ffffffff16565b610de590919063ffffffff16565b9050809550505050505092915050565b60008183610b6391906110f5565b905092915050565b600160003373ffffffffffffffffffffffffffffffffffffffff1673ffffffffffffffffffffffffffffffffffffffff1681526020019081526020016000208054905081108015610bbd575060008110155b610bfc576040517f08c379a0000000000000000000000000000000000000000000000000000000008152600401610bf390611175565b60405180910390fd5b6000600160003373ffffffffffffffffffffffffffffffffffffffff1673ffffffffffffffffffffffffffffffffffffffff1681526020019081526020016000208281548110610c4f57610c4e611195565b5b90600052602060002090600302016000015411610ca1576040517f08c379a0000000000000000000000000000000000000000000000000000000008152600401610c9890611210565b60405180910390fd5b6000610cad3383610a08565b905060008054906101000a900473ffffffffffffffffffffffffffffffffffffffff1673ffffffffffffffffffffffffffffffffffffffff1663a9059cbb33836040518363ffffffff1660e01b8152600401610d0a9291906112bd565b6020604051808303816000875af1158015610d29573d6000803e3d6000fd5b505050506040513d601f19601f82011682018060405250810190610d4d919061131e565b5042600160003373ffffffffffffffffffffffffffffffffffffffff1673ffffffffffffffffffffffffffffffffffffffff1681526020019081526020016000208381548110610da057610d9f611195565b5b9060005260206000209060030201600201819055505050565b60008183610dc791906114c5565b905092915050565b60008183610ddd91906114f9565b905092915050565b60008183610df3919061156a565b905092915050565b6000819050919050565b610e0e81610dfb565b82525050565b6000602082019050610e296000830184610e05565b92915050565b600080fd5b610e3d81610dfb565b8114610e4857600080fd5b50565b600081359050610e5a81610e34565b92915050565b600060208284031215610e7657610e75610e2f565b5b6000610e8484828501610e4b565b91505092915050565b600081519050919050565b600082825260208201905092915050565b6000819050602082019050919050565b610ec281610dfb565b82525050565b606082016000820151610ede6000850182610eb9565b506020820151610ef16020850182610eb9565b506040820151610f046040850182610eb9565b50505050565b6000610f168383610ec8565b60608301905092915050565b6000602082019050919050565b6000610f3a82610e8d565b610f448185610e98565b9350610f4f83610ea9565b8060005b83811015610f80578151610f678882610f0a565b9750610f7283610f22565b925050600181019050610f53565b5085935050505092915050565b60006020820190508181036000830152610fa78184610f2f565b905092915050565b600073ffffffffffffffffffffffffffffffffffffffff82169050919050565b6000819050919050565b6000610ff4610fef610fea84610faf565b610fcf565b610faf565b9050919050565b600061100682610fd9565b9050919050565b600061101882610ffb565b9050919050565b6110288161100d565b82525050565b6000602082019050611043600083018461101f565b92915050565b600082825260208201905092915050565b7f4e6f207374616b65730000000000000000000000000000000000000000000000600082015250565b6000611090600983611049565b915061109b8261105a565b602082019050919050565b600060208201905081810360008301526110bf81611083565b9050919050565b7f4e487b7100000000000000000000000000000000000000000000000000000000600052601160045260246000fd5b600061110082610dfb565b915061110b83610dfb565b9250828201905080821115611123576111226110c6565b5b92915050565b7f496e646578206f7574206f6620626f756e647300000000000000000000000000600082015250565b600061115f601383611049565b915061116a82611129565b602082019050919050565b6000602082019050818103600083015261118e81611152565b9050919050565b7f4e487b7100000000000000000000000000000000000000000000000000000000600052603260045260246000fd5b7f4e6f207374616b657320746f2077697468647261770000000000000000000000600082015250565b60006111fa601583611049565b9150611205826111c4565b602082019050919050565b60006020820190508181036000830152611229816111ed565b9050919050565b7f4c6f636b2074696d65206e6f74206f7665720000000000000000000000000000600082015250565b6000611266601283611049565b915061127182611230565b602082019050919050565b6000602082019050818103600083015261129581611259565b9050919050565b60006112a782610faf565b9050919050565b6112b78161129c565b82525050565b60006040820190506112d260008301856112ae565b6112df6020830184610e05565b9392505050565b60008115159050919050565b6112fb816112e6565b811461130657600080fd5b50565b600081519050611318816112f2565b92915050565b60006020828403121561133457611333610e2f565b5b600061134284828501611309565b91505092915050565b7f416d6f756e74206d7573742062652067726561746572207468616e2030000000600082015250565b6000611381601d83611049565b915061138c8261134b565b602082019050919050565b600060208201905081810360008301526113b081611374565b9050919050565b60006040820190506113cc60008301856112ae565b6113d960208301846112ae565b9392505050565b6000815190506113ef81610e34565b92915050565b60006020828403121561140b5761140a610e2f565b5b6000611419848285016113e0565b91505092915050565b7f416c6c6f77616e6365206973206e6f7420656e6f756768000000000000000000600082015250565b6000611458601783611049565b915061146382611422565b602082019050919050565b600060208201905081810360008301526114878161144b565b9050919050565b60006060820190506114a360008301866112ae565b6114b060208301856112ae565b6114bd6040830184610e05565b949350505050565b60006114d082610dfb565b91506114db83610dfb565b92508282039050818111156114f3576114f26110c6565b5b92915050565b600061150482610dfb565b915061150f83610dfb565b925082820261151d81610dfb565b91508282048414831517611534576115336110c6565b5b5092915050565b7f4e487b7100000000000000000000000000000000000000000000000000000000600052601260045260246000fd5b600061157582610dfb565b915061158083610dfb565b9250826115905761158f61153b565b5b82820490509291505056fea2646970667358221220d331d6d435f9f598f4aa5619a81ea1014844450dd2b11470b7673a0ca404c90f64736f6c63430008180033",
  "linkReferences": {},
  "deployedLinkReferences": {}
}